:10E000000C9470700C948D700C948D700C948D70B9
:10E010000C948D700C948D700C948D700C948D708C
:10E020000C948D700C948D700C948D700C948D707C
:10E030000C948D700C948D700C948D700C948D706C
:10E040000C948D700C948D700C948D700C948D705C
:10E050000C948D700C948D700C948D700C948D704C
:10E060000C948D700C948D700C948D700C948D703C
:10E070000C948D700C948D700C948D70E8724272BB
:10E080004272DC728A72427242724272427242720E
:10E0900042724272977242724272A3724272C872A4
:10E0A00042724272D2724272427242724272427240
:10E0B000427242724272427242724272E57242721D
:10E0C00042725B7242725373427242724272427285
:10E0D0008472427242724272427242724F72AF72E4
:10E0E00011241FBECFEFD0E1DEBFCDBF13E0A0E013
:10E0F000B1E0E0E6F7EE02C005900D92AA33B10759
:10E10000D9F724E0AAE3B3E001C01D92AF33B20710
:10E11000E1F70E9423720C94AE730C9400700F937D
:10E120001F93CF93DF9320E030E0D0E018C09491AC
:10E13000AC2FA927B0E0A75FBD4FCC913196E01777
:10E14000F107A9F7C9010E94EA708C2F80950E94FF
:10E15000DA700E94F47098010115104E29F08901BF
:10E160001395F901CD2FE3CF86E00E94DA700E946B
:10E17000F470DF91CF911F910F9108959093C50096
:10E180008093C40088E98093C10086E08093C20038
:10E1900008958091C00088231CF48091C6000895E2
:10E1A00080E00895E0ECF0E080818823ECF7809136
:10E1B000C6000895E0ECF0E0908195FFFDCF8093DC
:10E1C000C6000895E0ECF0E0908195FFFDCF8093CC
:10E1D000C6000895CF93C82F892F0E94E2708C2F1C
:10E1E0000E94E270CF910895E0ECF0E0808185FF1D
:10E1F000FDCF8DE08093C6000895CF93DF93EC01AF
:10E200008881882331F021960E94DA7089918111EA
:10E21000FBCFDF91CF910895CF93DF93EC018881FD
:10E22000882331F021960E94DA7089918111FBCF09
:10E230008DE00E94DA70DF91CF91089510923E0335
:10E2400010923D030E94C970803541F489E093E04B
:10E250000E940C7181E080933A03089586E69EE067
:10E260000197F1F7000080913D0390913E030196E4
:10E2700090933E0380933D038A3F910518F380916C
:10E280003A03811102C00C9400000895E0E0F0E030
:10E2900083E080935700E89507B600FCFDCFF39527
:10E2A000E11590EEF907A9F70895CF93DF93C0E049
:10E2B000D0E0CE010E9494738F3F21F06FEFCE012A
:10E2C0000E949C732196C11588E0D80791F7DF91D1
:10E2D000CF910895EF92FF920F931F93CF93DF9307
:10E2E0008C017B01F394DB0181E0A80142505109CC
:10E2F000461B570B2C911296FD01E40FF51FED0103
:10E300002197988130E0392B090180935700E895D7
:10E310001124EA16FB0671F785E0F8018093570097
:10E32000E89507B600FCFDCFDF91CF911F910F91CB
:10E33000FF90EF900895EF92FF920F931F93CF936A
:10E34000DF937B01F394EB0101978C01061B170B04
:10E350006991C8018C0F9D1F0E949C73CE15DF052B
:10E36000B9F7DF91CF911F910F91FF90EF90089532
:10E370001F93CF93DF93182FEB01882321F0613097
:10E380007F4D18F026C0C0E0D0E0CE010E94EA70B8
:10E3900010923C0310923B03E0E0F0E0EC0FFD1F15
:10E3A00084910E94DA70E0913B03F0913C03319636
:10E3B000F0933C03E0933B03EF3FF10579F370F3F7
:10E3C0000E94F470113029F0D395C1308FEDD80739
:10E3D000E0F2DF91CF911F9108951F93CF93DF93C8
:10E3E000182FEB01882321F06130774018F027C007
:10E3F000C0E0D0E0CE010E94EA7010923C0310927F
:10E400003B0380E090E08C0F9D1F0E9494730E945C
:10E41000DA7080913B0390913C03019690933C030A
:10E4200080933B038F3F910571F368F30E94F47072
:10E43000113029F02896C13087E0D807D8F2DF9153
:10E44000CF911F910895F89487E090E00E94BE70EC
:10E450000E941E710F2EF1E28F2EF02D6894EE2493
:10E46000E1F8F12C6894AA24A2F8B12C0F2EF9E05F
:10E470009F2EF02D0F2EF3E0CF2ED12CF02D662401
:10E480006394712C0E94D27090E0FC01E254F10977
:10E49000E233F105B8F7E25CFF480C948E73F301A8
:10E4A0009092570084910E94DA7086E00E94DA70A0
:10E4B0000E94F470E7CF0E94D270853469F08634F0
:10E4C00019F08134D9F410C00E94467186E00E9490
:10E4D000DA700E94F470D6CF0E94557186E00E94D7
:10E4E000DA700E94F470CECF0E9446710E9455717E
:10E4F00086E00E94DA700E94F470C4CF85E10E9429
:10E50000DA700E94F470BECF85E10E94DA700E943A
:10E51000F470B8CFE0E0F0E09092570084910E9450
:10E52000DA7086E00E94DA700E94F470ABCFF601D8
:10E530009092570084910E94DA7086E00E94DA700F
:10E540000E94F4709FCFF7019092570084910E942F
:10E55000DA7086E00E94DA700E94F47093CFE0E0F7
:10E56000F0E08092570084910E94DA70F701809267
:10E57000570084910E94DA70F501809257008491CF
:10E580000E94DA7086E00E94DA700E94F4707ACFFE
:10E5900080E091E00E94FD7086E00E94DA700E94A7
:10E5A000F47070CF8DE193E00E94FD7086E00E94D0
:10E5B000DA700E94F47066CF80E293E00E94FD70F2
:10E5C0000E94F4700C9400005DCF0E948F705ACFAF
:10E5D0000E94D270C82F0E94D270082F10E0102F16
:10E5E00000270E94D270082BC53481F1C63409F08F
:10E5F00049CF10923E0310923D03C0E0D0E00E944C
:10E60000D270C15CDC4F8883C0913D03D0913E0342
:10E610002196D0933E03C0933D03CF3FD10579F3BC
:10E6200070F30130FFED1F0758F46FE373E0C8018A
:10E630000E946A7186E00E94DA700E94F47022CF14
:10E6400085E10E94DA700E94F4701CCF10923E03A4
:10E6500010923D03C0E0D0E00E94D270C75FDE4F51
:10E660008883C0913D03D0913E032196D0933E0311
:10E67000C0933D03CF3FD10579F370F3013087E0BC
:10E68000180758F469E071E0C8010E949B7186E0A8
:10E690000E94DA700E94F470F5CE85E10E94DA7073
:10E6A0000E94F470EFCE0E94D270182F0E94D27098
:10E6B000C82FD0E0DC2FCC270E94D270C82B153495
:10E6C000C1F0163409F0DECE0E94D270C1309FED49
:10E6D000D90748F4BE010E94B87186E00E94DA7042
:10E6E0000E94F470CFCE85E10E94DA700E94F4702F
:10E6F000C9CE0E94D270C130EFEFDE0748F4BE01F0
:10E700000E94ED7186E00E94DA700E94F470BACE29
:10E7100085E10E94DA700E94F470B4CEEE0FFF1F04
:10E720000590F491E02D0994F999FECF92BD81BD39
:10E73000F89A992780B50895262FF999FECF92BDB2
:10E7400081BDF89A019700B4021639F01FBA20BDB6
:10E750000FB6F894FA9AF99A0FBE0895F894FFCF7D
:10E7600056413030303030310001020304000000E7
:10E770000000000000000000000000000000000099
:10E780000000000000000000000000000000000089
:10E790000000000000000000000000000000000079
:10E7A0000000000000000000000000000000000069
:10E7B0000000000000000000000000000000000059
:10E7C0000000000000000000000000000000000049
:10E7D0000000000000000000000000000000000039
:10E7E0000000000000000000000000000000000029
:10E7F0000000000000000000000000000000000019
:10E800000000000000000000000000000000000008
:10E8100000000000000000000000000000000000F8
:10E8200000000000000000000000000000000000E8
:10E8300000000000000000000000000000000000D8
:10E8400000000000000000000000000000000000C8
:10E8500000000000000000000000000000000000B8
:10E8600000000000000000000000809717B9392E5A
:10E87000AEE56572F25CDCCB4B5DDDCA4AE46473E5
:10E88000F3B8382FAF01819616BA3A2DAD038394B1
:10E89000145FDFC848E66671F1E76770F05EDEC9B5
:10E8A0004902829515BB3B2CACE36374F45ADACD74
:10E8B0004D06869111BF3F28A8BE3E29A907879023
:10E8C000105BDBCC4CE26275F559D9CE4EE0607737
:10E8D000F7BC3C2BAB0585921204849313BD3D2AF3
:10E8E000AAE16176F658D8CF4F51D1C646E8687F85
:10E8F000FFB43423A30D8D9A1A0C8C9B1BB53522C3
:10E90000A2E9697EFE50D0C747EB6B7CFC52D2C5B2
:10E91000450E8E9919B73720A0B63621A10F8F98D2
:10E920001853D3C444EA6A7DFDB23225A50B8B9CF3
:10E930001C57D7C040EE6E79F9EF6F78F856D6C104
:10E94000410A8A9D1DB33324A408889F1FB1312634
:10E95000A6ED6D7AFA54D4C34355D5C242EC6C7B14
:10E96000FBB03027A709899E1E41746F6D547261F8
:10E970006365426F6F744C6F616465720030300084
:10E98000457869742066726F6D20424F4F544C4F2A
:0AE99000414445522E204259450033
:040000030000E00019
:00000001FF
