S0120000462D30303030392D30312E7372656318
S113E0000C94F0700C940D710C940D710C940D71B2
S113E0100C940D710C940D710C940D710C940D7184
S113E0200C940D710C940D710C940D710C940D7174
S113E0300C940D710C940D710C940D710C940D7164
S113E0400C940D710C940D710C940D710C940D7154
S113E0500C940D710C940D710C940D710C940D7144
S113E0600C940D710C940D710C940D710C940D7134
S113E0700C940D710C940D710C940D71AE74E873C5
S113E080E873A2744674E873E873E873E873E8739A
S113E090E873E8735474E873E8736274E87394740F
S113E0A0E873E8739B74E873E873E873E873E873E0
S113E0B0E873E873E873E873E873E873AB74E873C0
S113E0C0E8730D74E8733D75E873E873E873E873F7
S113E0D03E74E873E873E873E873E873FF7370746D
S113E0E000809717B9392EAEE56572F25CDCCB4B34
S113E0F05DDDCA4AE46473F3B8382FAF0181961624
S113E100BA3A2DAD038394145FDFC848E66671F113
S113E110E76770F05EDEC94902829515BB3B2CAC03
S113E120E36374F45ADACD4D06869111BF3F28A8F3
S113E130BE3E29A9078790105BDBCC4CE26275F5E3
S113E14059D9CE4EE06077F7BC3C2BAB05859212D3
S113E15004849313BD3D2AAAE16176F658D8CF4FC3
S113E16051D1C646E8687FFFB43423A30D8D9A1AB3
S113E1700C8C9B1BB53522A2E9697EFE50D0C747A3
S113E180EB6B7CFC52D2C5450E8E9919B73720A093
S113E190B63621A10F8F981853D3C444EA6A7DFD83
S113E1A0B23225A50B8B9C1C57D7C040EE6E79F973
S113E1B0EF6F78F856D6C1410A8A9D1DB33324A463
S113E1C008889F1FB13126A6ED6D7AFA54D4C34353
S113E1D055D5C242EC6C7BFBB03027A709899E1E43
S113E1E011241FBECFEFD0E1DEBFCDBF11E0A0E010
S113E1F0B1E0E2E2FBEE02C005900D92A234B10759
S113E200D9F722E0A2E4B1E001C01D92A534B2071F
S113E210E1F70E94D3730C948F750C940070CF9324
S113E220DF93CDB7DEB728970FB6F894DEBF0FBEE5
S113E230CDBF1A8219821B821D821C8233C01A82AE
S113E240198221C089819A819F838E838E819F81C7
S113E250FC018491888788858D839D818B818927A2
S113E260882F90E080529F41FC018081282F8B8170
S113E270882F90E0982F882782278B8389819A8121
S113E28001969A83898389819A818F3F9105D1F27E
S113E290C8F28C810E94B1718B8180950E94977124
S113E2A00E94E0718C81813E50F628960FB6F89456
S113E2B0DEBF0FBECDBFDF91CF910895CF93DF9323
S113E2C000D0CDB7DEB79A83898385EC90E02981AD
S113E2D03A81232F3327FC01208384EC90E02981A9
S113E2E0FC01208381EC90E028E9FC01208382EC8E
S113E2F090E026E0FC0120830F900F90DF91CF91F6
S113E3000895CF93DF931F92CDB7DEB7000080EC62
S113E31090E0FC0180818823D4F786EC90E0FC0136
S113E3208081898389810F90DF91CF910895CF9364
S113E330DF931F92CDB7DEB78983000080EC90E0B5
S113E340FC018081882F90E080729927892BB1F39A
S113E35086EC90E02981FC0120830F90DF91CF911E
S113E3600895CF93DF931F92CDB7DEB78983000062
S113E37080EC90E0FC018081882F90E080729927E6
S113E380892BB1F386EC90E02981FC0120830F9066
S113E390DF91CF910895CF93DF9300D0CDB7DEB74F
S113E3A09A83898389819A81892F99270E94B171DF
S113E3B089810E94B1710F900F90DF91CF910895E0
S113E3C0CF93DF93CDB7DEB7000080EC90E0FC0183
S113E3D08081882F90E080729927892BB1F386EC95
S113E3E090E02DE0FC012083DF91CF910895CF933D
S113E3F0DF9300D0CDB7DEB79A8389830BC08981C0
S113E4009A81FC0180810E94977189819A81019689
S113E4109A83898389819A81FC018081882379F791
S113E4200F900F90DF91CF910895CF93DF93CDB7E5
S113E430DEB70C940000DF91CF910895CF93DF9362
S113E44000D000D0CDB7DEB71A8219821C821B829D
S113E4508FEF9FE69C838B8316C023E089819A818A
S113E460FC0120935700E89587E590E0FC0180814A
S113E470882F90E081709927892BB1F789819A813F
S113E48093959A8389832B813C8189819A81821710
S113E490930718F30F900F900F900F90DF91CF9187
S113E4A00895CF93DF9300D000D0CDB7DEB71A82A2
S113E4B019821C821B8280E098E09C838B8310C0AD
S113E4C089819A810E9475758F3F29F089819A818B
S113E4D06FEF0E947D7589819A8101969A83898361
S113E4E02B813C8189819A818217930748F30F908D
S113E4F00F900F900F90DF91CF910895CF93DF93FA
S113E500CDB7DEB7DF91CF910895CF93DF93CDB729
S113E510DEB728970FB6F894DEBF0FBECDBF9E833B
S113E5208D8378876F831C821B821A82198235C07F
S113E5308F8198859C012F5F3F4F38872F83FC0183
S113E5408081882F90E09C838B838F8198859C01A8
S113E5502F5F3F4F38872F83FC018081882F90E005
S113E560982F88279C018B819C81822B932B9C83E1
S113E5708B832D813E8189819A81820F931F41E093
S113E5802B813C81FC01090140935700E89511243B
S113E59089819A8102969A83898389819A818130BB
S113E5A0914030F225E08D819E81FC01209357003B
S113E5B0E89587E590E0FC018081882F90E08170E8
S113E5C09927892BB1F728960FB6F894DEBF0FBEB2
S113E5D0CDBFDF91CF910895CF93DF9300D000D0CA
S113E5E000D0CDB7DEB79C838B837E836D831A8284
S113E5F019821A82198218C08D819E819C012F5F15
S113E6003F4F3E832D83FC0140818B819C819C0183
S113E6102F5F3F4F3C832B83642F0E947D7589813C
S113E6209A8101969A83898389819A81089720F334
S113E63026960FB6F894DEBF0FBECDBFDF91CF9103
S113E6400895CF93DF93CDB7DEB72C970FB6F89428
S113E650DEBF0FBECDBF8A877C876B871C821B827F
S113E6601A8219821E821D828A85882331F41C86AF
S113E6701B868FEF9FE69A83898380E091E09E83D7
S113E6808D838D819E810E94CB712B853C858981F0
S113E6909A8182179307F0F48B859C850E94CB7135
S113E6A01092440280914402282F30E08B859C858F
S113E6B0820F931F98878F838F819885FC018491A3
S113E6C0898789850E949771809144028F5F809326
S113E6D04402E8CF2C960FB6F894DEBF0FBECDBF30
S113E6E0DF91CF910895CF93DF93CDB7DEB72C9709
S113E6F00FB6F894DEBF0FBECDBF8A877C876B87C9
S113E7001C821B821A8219821E821D828A8588239A
S113E71031F41C861B8680E098E09A83898380E02C
S113E72091E09E838D838D819E810E94CB712BC04D
S113E7308B859C850E94CB711092440217C08091F6
S113E7404402282F30E08B859C85820F931F988785
S113E7508F838F819885FC018491898789850E94A4
S113E7609771809144028F5F8093440280914402A8
S113E770883028F38A85813009F40CC08B859C8508
S113E78008969C878B872B853C8589819A81821783
S113E790930770F22C960FB6F894DEBF0FBECDBF70
S113E7A0DF91CF9108950F931F93CF93DF93CDB74C
S113E7B0DEB72B970FB6F894DEBF0FBECDBF19821C
S113E7C01B821A821C82F89488E090E00E945E7199
S113E7D087E689838981882F90E0092E000CAA0B93
S113E7E0BB0B42E450E021E330E0841B950B281777
S113E7F0390770F3825C9F48FC010C946F7529E023
S113E80081E090E0FC012093570084918D838D81F9
S113E8100E9497710E94E07161C10E948171898395
S113E8208981882F90E08534910579F086349105AB
S113E83021F08134910589F01AC00E941E7286E08D
S113E8400E9497710E94E07118C00E94517286E084
S113E8500E9497710E94E07110C00E941E720E9473
S113E860517286E00E9497710E94E07106C085E1B2
S113E8700E9497710E94E071000030C10E947E7274
S113E88085E10E9497710E94E07128C129E080E02F
S113E89090E0FC012093570084918E838E810E9426
S113E8A097710E94E0711AC129E083E090E0FC01B5
S113E8B02093570084918F838F810E9497710E94C7
S113E8C0E0710CC129E082E090E0FC012093570044
S113E8D08491888788850E9497710E94E071FEC0A8
S113E8E021E280E090E0FC01209357008491898725
S113E8F089850E94977121E282E090E0FC012093D7
S113E900570084918A878A850E94977121E284E066
S113E91090E0FC012093570084918B878B850E94A3
S113E92097710E94E071DAC08CE191E00E94F77166
S113E9300E94E071D3C085E291E00E94F7710E94C9
S113E940E071CCC088E291E00E94F7710E94E0710E
S113E9500E941572C3C00E940F71C0C00E948171D1
S113E96089830E948171882F90E0982F88279B8348
S113E9708A830E948171882F90E02A813B81822BB7
S113E980932B9B838A838981882F90E0853491051A
S113E990E1F18634910509F0A1C01092430210926E
S113E9A0420215C000914202109143020E948171FB
S113E9B0282FC8018E5B9E4FFC0120838091420268
S113E9C09091430201969093430280934202809176
S113E9D04202909143028130914020F38A819B81CD
S113E9E081159F4630F085E10E9497710E94E07185
S113E9F043C08A819B8162E471E00E94857286E053
S113EA000E9497710E94E07137C0109243021092E5
S113EA10420215C000914202109143020E9481718A
S113EA20282FC80180509F4FFC012083809142020F
S113EA309091430201969093430280934202809105
S113EA40420290914302089728F38A819B81813086
S113EA50974030F085E10E9497710E94E0710BC0ED
S113EA608A819B8160E071E00E94EC7286E00E94E2
S113EA7097710E94E071000031C00E948171898306
S113EA800E9481718C830E948171882F90E0982F5D
S113EA9088279B838A830E948171882F90E02A8132
S113EAA03B81822B932B9B838A838981882F90E0DF
S113EAB08534910559F08634910509F00EC08A8198
S113EAC09B81BC018C810E94217307C08A819B8138
S113EAD0BC018C810E9473730000000079CEEE0F9C
S113EAE0FF1F0590F491E02D0994F999FECF92BD92
S113EAF081BDF89A992780B50895262FF999FECFFC
S113EB0092BD81BDF89A019700B4021639F01FBA7C
S113EB1020BD0FB6F894FA9AF99A0FBE0895F894A6
S105EB20FFCF21
S113EB22010203040000000041746F6D54726163BA
S113EB3265426F6F744C6F61646572005641303088
S113EB423030303100303000457869742066726F9D
S113EB526D20424F4F544C4F414445522E2042594E
S105EB62450068
S903E0001C
