:107000000C9471380C9486380C9486380C9486381D
:107010000C9486380C9486380C9486380C948638F8
:107020000C9486380C9486380C9486380C948638E8
:107030000C9486380C9486380C9486380C948638D8
:107040000C9486380C9486380C9486380C948638C8
:107050000C9486380C9486380C9486380C948638B8
:107060000C9486380C9486380C9486380C948638A8
:107070000C9486380C9486380C9486389E3A163BCD
:10708000A43AB63A0F3BC13A843A843A843A843AF5
:10709000843AE53A843ACD3A843A9B3AD93A843AEA
:1070A000843A843A843A0A3B843A843A843A843A69
:1070B000843A843A843A843A843A843A843A843AE0
:1070C000A13A843AB93A843A843A843A843A843A7E
:1070D000843ABE3AA73A843A843A843A843AAA3A3D
:1070E000E83A11241FBECFEFD0E1DEBFCDBF11E0E3
:1070F000A0E0B1E0E6E8F8E702C005900D92A23307
:10710000B107D9F70E94C5390C94413C0C94003862
:10711000CF93DF9300D0CDB7DEB79A83898385EC18
:1071200090E029813A81232F3327FC01208384ECCE
:1071300090E02981FC01208381EC90E028E9FC01AA
:10714000208382EC90E026E0FC0120830F900F90DA
:10715000DF91CF910895CF93DF93CDB7DEB780EC69
:1071600090E0FC01808188232CF486EC90E0FC0107
:10717000808101C080E0DF91CF910895CF93DF93AC
:107180001F92CDB7DEB78983000080EC90E0FC0150
:107190008081882F90E080729927892BB1F386EC4B
:1071A00090E02981FC0120830F90DF91CF91089519
:1071B000CF93DF93CDB7DEB7000080EC90E0FC0109
:1071C0008081882F90E080729927892BB1F386EC1B
:1071D00090E02DE0FC012083DF91CF910895CF93C3
:1071E000DF9300D0CDB7DEB79A8389830BC0898146
:1071F0009A81FC0180810E94BE3889819A81019622
:107200009A83898389819A81FC018081882379F717
:107210000F900F90DF91CF910895CF93DF9300D01F
:10722000CDB7DEB79A8389830BC089819A81FC012F
:1072300080810E94BE3889819A8101969A838983D0
:1072400089819A81FC018081882379F78DE00E94F1
:10725000BE380F900F90DF91CF910895CF93DF93B9
:10726000CDB7DEB70C940000DF91CF910895CF9396
:10727000DF9300D0CDB7DEB71A82198216C023E0A3
:1072800089819A81FC0120935700E89587E590E079
:10729000FC018081882F90E081709927892BB1F7BC
:1072A00089819A8193959A83898389819A818115AD
:1072B000904728F30F900F90DF91CF910895CF93CF
:1072C000DF93CDB7DEB728970FB6F894DEBF0FBEB9
:1072D000CDBF9E838D8378876F831A82198235C0D4
:1072E0008F8198859C012F5F3F4F38872F83FC014A
:1072F0008081882F90E09C838B838F8198859C016F
:107300002F5F3F4F38872F83FC018081882F90E0CB
:10731000982F88279C018B819C81820F931F9C83CF
:107320008B832D813E8189819A81820F931F41E059
:107330002B813C81FC01090140935700E895112401
:1073400089819A8102969A83898389819A818F3F64
:10735000910531F228F225E08D819E81FC01209378
:107360005700E89587E590E0FC018081882F90E048
:1073700081709927892BB1F728960FB6F894DEBF54
:107380000FBECDBFDF91CF910895CF93DF93CDB7DF
:10739000DEB7CB51D1400FB6F894DEBF0FBECDBFE4
:1073A0001A821B8219821C8220E031E0CE014C96A9
:1073B000FC01A901119241505040E1F781E08C8F0E
:1073C00082E08D8F83E08E8F84E08F8F85E088A3AD
:1073D00086E089A387E08AA388E08BA389E08CA359
:1073E0001E821D82F89488E090E00E9488381982FD
:1073F00080C00E94AB38803539F480E091E00E9473
:107400000D3981E08B8379C080E090E0A0E8BFE394
:107410008E879F87A88BB98B26E636E646E655E42D
:107420006E857F85888999890E94A63BDC01CB0106
:107430008A8B9B8BAC8BBD8B20E030E040E85FE318
:107440006A897B898C899D890E94203B88232CF442
:1074500081E090E09F8B8E8B3FC020E03FEF4FE7B5
:1074600057E46A897B898C899D890E94A13B181603
:107470004CF520E030E040E251E46E857F8588895C
:1074800099890E94A63BDC01CB01BC01CD010E9481
:10749000253BDC01CB019F8B8E8B0FC080E791E0F9
:1074A000998F888F888D998D0197F1F7998F888FA3
:1074B0008E899F8901979F8B8E8B8E899F89892BBF
:1074C00069F714C06A897B898C899D890E94253B54
:1074D000DC01CB019F8B8E8B8E899F899B8F8A8F3E
:1074E0008A8D9B8D0197F1F79B8F8A8F89818F5FA2
:1074F00089838981823008F47CCF81E08B838B8102
:10750000882311F40E942E3982E48C838C81882F89
:1075100090E0092E000CAA0BBB0B41E450E022E3E3
:1075200030E0841B950B2817390770F3825C974C69
:10753000FC010C943B3C0E94D83881C00E94D83892
:107540007EC00E94D8387BC00E94D83878C00E9484
:10755000D83875C029E081E090E0FC012093570005
:1075600084918F838F810E94BE3869C00E94D83871
:1075700066C00E9437390E94D83861C00E94D8384E
:107580005EC029E080E090E0FC01209357008491E8
:10759000888788850E94BE3852C029E083E090E049
:1075A000FC01209357008491898789850E94BE3809
:1075B00046C029E082E090E0FC01209357008491CE
:1075C0008A878A850E94BE383AC00E94D83837C060
:1075D00021E280E090E0FC012093570084918B87AA
:1075E0008B850E94BE3821E282E090E0FC0120936E
:1075F000570084918C878C850E94BE3821E284E0FC
:1076000090E0FC012093570084918D878D850E9426
:10761000BE3815C084E191E00E94EF3810C087E1C8
:1076200091E00E940D390E942E3909C09E01245E0E
:107630003F4F8D819E81B9010E945F39000064CF68
:107640000E94543B08F481E008950E94803B88F03A
:107650009F5798F0B92F9927B751B0F0E1F0660F16
:10766000771F881F991F1AF0BA95C9F714C0B13057
:1076700091F00E949A3BB1E008950C949A3B672FD9
:10768000782F8827B85F39F0B93FCCF38695779586
:107690006795B395D9F73EF490958095709561956F
:1076A0007F4F8F4F9F4F0895990F0008550FAA0BDA
:1076B000E0E8FEEF16161706E807F907C0F0121605
:1076C0001306E407F50798F0621B730B840B950B08
:1076D00039F40A2661F0232B242B252B21F408955D
:1076E0000A2609F4A140A6958FEF811D811D0895FA
:1076F00057FD9058440F551F59F05F3F71F0479563
:10770000880F97FB991F61F09F3F79F08795089547
:10771000121613061406551FF2CF4695F1DF08C066
:10772000161617061806991FF1CF86957105610583
:1077300008940895E894BB2766277727CB0197F92B
:1077400008950E94543B08F48FEF08950E94B93BBE
:107750000C942A3C0E941C3C38F00E94233C20F0F0
:10776000952311F00C94133C0C94193C11240C94A7
:107770009B3B0E94783B70F3959FC1F3950F50E0BF
:10778000551F629FF001729FBB27F00DB11D639FD3
:10779000AA27F00DB11DAA1F649F6627B00DA11D79
:1077A000661F829F2227B00DA11D621F739FB00D1F
:1077B000A11D621F839FA00D611D221F749F33278F
:1077C000A00D611D231F849F600D211D822F762F28
:1077D0006A2F11249F5750409AF0F1F088234AF005
:1077E000EE0FFF1FBB1F661F771F881F9150504071
:1077F000A9F79E3F510580F00C94133C0C949B3BE1
:107800005F3FE4F3983ED4F3869577956795B795F7
:10781000F795E7959F5FC1F7FE2B880F911D969511
:10782000879597F9089597F99F6780E870E060E081
:1078300008959FEF80EC089500240A941616170609
:1078400018060906089500240A9412161306140651
:1078500005060895092E0394000C11F4882352F0B4
:10786000BB0F40F4BF2B11F460FF04C06F5F7F4F6C
:107870008F4F9F4F0895EE0FFF1F0590F491E02D5D
:067880000994F894FFCF0B
:1078860041746F6D5472616365426F6F744C6F61C2
:1078960064657200303000457869742066726F6DD9
:1078A60020424F4F544C4F414445522E2042594599
:0278B6000000D0
:040000030000700089
:00000001FF
