:200000000C9449000C9466000C9466000C9466000C9466000C9466000C9466000C946600CD
:200020000C9466000C9466000C9466000C9466000C9466000C9466000C9466000C94660090
:200040000C94F9090C94080A0C94170A0C9466000C940A060C9466000C943A060C946600E9
:200060000C9466000C9466000C9466000C9466000C94FF070C9466000C942F08CA09CE093B
:20008000D209D609DA09DE09E209E609EA09EE09F20911241FBECFEFD0E1DEBFCDBF11E082
:2000A000A0E0B1E0E4EEFEE102C005900D92A637B107D9F726E0A6E7B1E001C01D92AB30B4
:2000C000B207E1F70E94490A0C94700F0C94000087E880937A0010927B008FEF80937E00B3
:2000E00010927C0010929301109292010895877080937C0086EF8A95F1F7EAE7F0E0808136
:2001000080648083808186FDFDCF80917800909179000895E4E9F1E084E1808385E0818379
:20012000ABE5B5E08C91848311968C911197858312968C918683809176018783CF010E9430
:20014000500708950E94C9028F3019F08E3FA9F008958091EF01883048F40E947700AC01B8
:2001600060E070E084E60E94B302089540E050E0BA0183E00E94B30208958091EF0181307D
:2001800069F028F08230B1F08330D9F0089540E050E0BA0184E60E94B30208958091870180
:2001A00040917C0150E060E070E0582B84E60E94B30208951092870110927C010E94B405AC
:2001C00008950E948A0008958091B9018823C1F08091B00181110EC0E0EBF1E0ADEEB1E0A8
:2001E00029EB31E081918D93E217F307D9F70E94A20004C080EB91E00E947D091092B9017D
:2002000008958091A601882331F08DE991E00E9450071092A601089580917B0184FF05C022
:2002200080917B018F7E80937B0180917B0183FF11C00E942E07DC01E0EBF1E029EB31E040
:200240008D918193E217F307D9F70E943F0781E08093B90108958091A601811114C08091C7
:200260007901882381F010927901ADEDB1E0EDE9F1E026EA31E08D918193E217F307D9F7E4
:2002800081E08093A60108958091860184FF0AC0809186018F7E8093860180917601805F1B
:2002A000809376018091A60181111AC08091860183FF16C0809176018F5F809376010E94FE
:2002C0004F09DC01EDE9F1E026EA31E08D918193E217F307D9F70E946C0981E08093A601FA
:2002E00008951092A6011092B90108950E940C010E94E4000E942B010E9444010E94010191
:200300000895CF93DF931F92CDB7DEB719828981811107C0000089818F5F898389818823EB
:20032000C9F30F90DF91CF9108958FEF84B988EF87B988B1886F88B9089514B846980E9429
:20034000810183B19FEF94B9469A0895CF93C82F0E949D018370E1F3C5B947980E948101AE
:20036000479ACF910895CF93C82F0E949D018370E1F3C5B988B18F7588B90E94810188B1E6
:20038000806A88B9CF910895CF93C92F0E94B3018C2F0E94B30184E20E94A601CF910895C8
:2003A0002EE1629FB00111249B01280F311DC9010E94C40108950E94B30180EC0E94A6014D
:2003C0000895CF93DF9380E090E00E94C401C0EED1E080E00E94DB012197D9F7DF91CF91E0
:2003E0000895CF93DF9380E090E10E94C401C0E0D8E080E00E94DB012197D9F7DF91CF91C6
:200400000895CF93DF9380EE91E00E94C401C0E0DFE080E00E94DB012197D9F7DF91CF9190
:20042000089580520E94DB010895CF93DF93EC018881882331F021960E9411028991811184
:20044000FBCFDF91CF9108950E949501449889EF90E00197F1F700C00000449A439880EE02
:200460000E94B30181E00E94B30182E40E94A6018EE10E94B30180E00E94B30183E40E943C
:20048000A60180E00E94B30180E00E94B30180E40E94A6018EE10E94B30180E00E94B30121
:2004A00081E40E94A60182E00E94B30180E00E94B30182E20E94A6018CE90E94A60180E84D
:2004C0000E94A601089580E987BD84E688BD82E084BD85E085BDEEE6F0E080818260808306
:2004E0000895EDEDF1E025EE31E080E09191890FE217F307D9F78093E5010895CF93DF9349
:20050000EC019093F7018093F60145E050E0BC0186EE91E00E94FF0E8091E601823489F0FC
:20052000E6EEF1E082E4808384E0818381E08283138282E0848345E050E0BE01CF010E945B
:20054000210FE0917701F0917801309719F08091E70109958091EA018093F8011092EC018A
:20056000DF91CF910895EDEDF1E09091F80190839091EC01918382838091EE018383748312
:200580006583568347830E94710281E08093790108950F931F93CF93DF931F92CDB7DEB73E
:2005A000EDEEF1E08481458150E060E070E0BA0155274427782B8781482B8681582B4093E7
:2005C000D9015093DA016093DB017093DC0111811A3009F448C288F4143009F4BEC228F498
:2005E000113001F1123029F1B1C2163009F470C038F1193009F496C1A9C21F3009F420C128
:2006000038F41D3009F4A9C21E3009F4DAC09EC2183809F46CC21E3F09F49FC2113209F042
:2006200095C287C240E050E0BA0184E60E94B30294C240E050E0BA0184E60E94B3028DC2DD
:200640001091F001112341F040E050E0BA0184E00E94B30210E081C28091EF018630E9F01A
:2006600028F4843041F0853079F02BC08730F1F08C3829F126C04093C4015093C5016093E0
:20068000C6017093C7011DC04093C8015093C9016093CA017093CB0114C04093CC015093BE
:2006A000CD016093CE017093CF010BC04093D0015093D1016093D2017093D30102C0409381
:2006C000D40140E050E0BA0184E60E94B30245C21091F001112341F040E050E0BA0184E00C
:2006E0000E94B30210E039C28091EF01863049F130F48430F1F1C8F4813059F05BC08C3878
:2007000009F443C0843C09F449C0873009F052C024C04091C0015091C1016091C201709183
:20072000C30184E60E94B30218C24091C8015091C9016091CA017091CB0184E60E94B302CB
:200740000CC24091CC015091CD016091CE017091CF0184E60E94B30200C24091D0015091E7
:20076000D1016091D2017091D30184E60E94B302F4C14091C4015091C5016091C6017091A2
:20078000C70184E60E94B302E8C14091D40150E060E070E084E60E94B302DFC14091D501B9
:2007A0005091D6016091D7017091D80184E60E94B302D3C140E050E0BA0184E00E94B302C3
:2007C000CCC18091F001823039F040E050E0BA0184E00E94B302C1C18091EF01882319F0B2
:2007E0008130A1F026C091E0452B462B472B09F490E08091BB0190FB80F98093BB0140E0E0
:2008000050E0BA0184E60E94B302A7C191E0452B462B472B09F490E08091BB0190FB81F9C1
:200820008093BB0140E050E0BA0184E60E94B30294C140E050E0BA0184E00E94B3028DC1B4
:200840000091F001013009F488C128F0023009F444C010E082C11091EF01113081F028F0C6
:200860001230C9F0133021F130C04091EB01417050E060E070E084E60E94B3026EC1409149
:20088000EB014695417050E060E070E084E60E94B302102F62C14091EB0142FB442740F95F
:2008A00050E060E070E084E60E94B302102F55C14091EB0143FB442740F950E060E070E003
:2008C00084E60E94B302102F48C140E050E0BA0184E00E94B302102F40C11091EF01112344
:2008E00019F0113059F016C04091BB01417050E060E070E084E60E94B3022FC14091BB0153
:200900004695417050E060E070E084E60E94B30210E023C140E050E0BA0184E00E94B30230
:2009200010E01BC11091F001112341F040E050E0BA0184E00E94B30210E00FC18091EF016D
:20094000813451F118F4803441F086C0823409F443C08C3409F460C07FC08091E60190E02F
:20096000A0E0B0E0481759076A077B0771F0E6EEF1E040831982608129818091F60190919D
:20098000F701820F911D0E940F0F40E050E0BA0184E60E94B302E1C08091E70190E0A0E00A
:2009A000B0E0481759076A077B0779F0E6EEF1E0418381E08983618129818091F601909101
:2009C000F701820F911D0E940F0F40E050E0BA0184E60E94B302C1C08091E80190E0A0E0E9
:2009E000B0E0481759076A077B0779F0E6EEF1E0428382E08983628129818091F6019091BE
:200A0000F701820F911D0E940F0F40E050E0BA0184E60E94B302A1C08091EA0190E0A0E0C6
:200A2000B0E0481759076A077B0779F0E6EEF1E0448384E08983648129818091F601909177
:200A4000F701820F911D0E940F0F40E050E0BA0184E60E94B30281C040E050E0BA0184E023
:200A60000E94B3027AC01091F001112341F040E050E0BA0184E00E94B30210E06EC08091F9
:200A8000EF01813449F018F4803409F129C0823461F08C3499F024C04091E70150E060E078
:200AA00070E084E60E94B30258C04091E80150E060E070E084E60E94B3024FC04091EA0107
:200AC00050E060E070E084E60E94B30246C04091E60150E060E070E084E60E94B3023DC059
:200AE00040E050E0BA0184E00E94B30236C01091EF01111115C0EDEDF1E08091F8018083FA
:200B000081E3818390E3928322E32383848336E5358386832783908781E0809379011DC0CB
:200B200040E450E360E270E184E60E94B30210E014C087E090E00E947700AC01990F660B90
:200B4000770B84E60E94B30210E007C040E050E0BA0182E00E94B30210E0812F0F90DF9128
:200B6000CF911F910F91089540E050E0BA0184E60E94B3020895909184019F5F9F77E92FED
:200B8000F0E0EE5DFC4F8081909384010895909183019F5F9F77E92FF0E0EE5DFC4F80836F
:200BA00090938301089590918201E92FF0E0E750FE4F80819F5F90938201089580917B0112
:200BC00080FD0BC080917B01816080937B01109282010E94D3058093C6000895882331F0EF
:200BE000E1ECF0E08081806880830895E1ECF0E080818F7780830895882331F0E1ECF0E022
:200C00008081806480830895E1ECF0E080818F7B808308951F920F920FB60F9211242F9358
:200C20003F934F935F936F937F938F939F93AF93BF93EF93FF9385E080937D018091C00037
:200C400090917C01892B80937C018091C6000E94C705FF91EF91BF91AF919F918F917F916D
:200C60006F915F914F913F912F910F900FBE0F901F9018951F920F920FB60F9211242F93FE
:200C80003F934F935F936F937F938F939F93AF93BF93EF93FF9380917B0180FF0EC08091B3
:200CA0008201893030F080917B018E7F80937B0104C00E94D3058093C600FF91EF91BF9138
:200CC000AF919F918F917F916F915F914F913F912F910F900FBE0F901F90189587E0809333
:200CE000C400E1ECF0E080818861808381E00E94EE0581E00E94FC0510927C010895CF928F
:200D0000DF92FF920F931F93CF93DF938091810190918001981741F190917B0190FD24C085
:200D20008F5F482F4F71842F90E09C01220F331F220F331F220F331F280F391F2E553C4FA8
:200D4000B901675F7F4FF901DF01A21BB30B8191A750BE4F8C93E617F707B1F740938101C3
:200D6000109282010E94DE0580917B0183FD56C08091830190918401891B8F77893008F40C
:200D80004DC0F0907E0181E08F0D8F71F82E082F10E0E801CC0FDD1FCC0FDD1FCC0FDD1F8F
:200DA000C00FD11FCE5FDD4F6E0189E0C80ED11C0E94BB058993CC15DD05D1F7EF2DF0E08B
:200DC000CF01880F991F880F991F880F991FE80FF91FEE5FFD4F90E080E02191920F8F5F9D
:200DE0008830D9F7F801EE0FFF1FEE0FFF1FEE0FFF1F0E0F1F1FF801EE5FFD4F8085891393
:200E000008C080917B01886080937B01F0927E0105C080917B01806180937B01DF91CF9173
:200E20001F910F91FF90DF90CF90089580917D01882341F080917D01815080937D0110926A
:200E40007A01089580917A01811107C0809183018093840181E080937A01089580917F014B
:200E60008F5F8F7190E09C01220F331F220F331F220F331F820F931F8E5F9D4F0895909114
:200E80007F019F5F9F7190937F0180917E01891B8F7129F490917B01977F90937B010895E1
:200EA000409180014F5F4F71DC01242F30E0F901EE0FFF1FEE0FFF1FEE0FFF1FE20FF31FE4
:200EC000EE55FC4F2F5F3F4FC901880F991F880F991F880F991F280F391F2E553C4F8D91F6
:200EE0008193E217F307D9F740938001089580918F0190919001891B8F71089590918F01E5
:200F000080919001981307C08091850188608093850180E00895909190019F5F9F71E92FD0
:200F2000F0E0E551FA4F808190939001089520918F014091900130E02F5F3F4F2F71332747
:200F400050E02417350731F480918501846080938501089590918F019F5F9F71E92FF0E06D
:200F6000E551FA4F808390938F01089580918E01893038F08091850182608093850180E0AC
:200F80000895E0918E01F0E0EE53FB4F808190918E019F5F90938E0108958091860180FD46
:200FA00011C080918601816080938601E9ECF0E080818F7E80835C9A10928E010E94B60711
:200FC0008093CE000895882331F0E9ECF0E08081806880830895E9ECF0E080818F778083EA
:200FE0000895882331F0E9ECF0E08081806480830895E9ECF0E080818F7B808308951F925D
:201000000F920FB60F9211242F933F934F935F936F937F938F939F93AF93BF93EF93FF931C
:2010200085E0809389018091C80090918701892B809387018091CE000E949707FF91EF91AE
:20104000BF91AF919F918F917F916F915F914F913F912F910F900FBE0F901F9018951F9228
:201060000F920FB60F9211242F933F934F935F936F937F938F939F93AF93BF93EF93FF93BC
:201080008091860180FF1CC080918E018930A0F0809186018E7F8093860182E38093880134
:2010A000809186018460809386015C98E9ECF0E080818061808304C00E94B6078093CE0098
:2010C000FF91EF91BF91AF919F918F917F916F915F914F913F912F910F900FBE0F901F90F6
:2010E000189587E18093CC00E9ECF0E080818861808381E00E94E30781E00E94F1071092E0
:2011000087010895BF92CF92DF92EF92FF920F931F93CF93DF9380918D0190918C01981751
:2011200059F19091860190FD27C09091860192FD23C08F5F8F70282F30E0A901440F551F6A
:20114000440F551F440F551F240F351F25533B4F80938D01A901475F5F4FF901DF01A21B42
:20116000B30B8191AE53BB4F8C93E417F507B1F710928E010E94CD078091860183FD64C0F3
:201180000E947707893008F45FC0B0908A0181E08B0D8F70B82EE82EF12CE701CC0FDD1FC0
:2011A000CC0FDD1FCC0FDD1FCE0DDF1DC55ADA4F2FEFE21AF20AC701880F991F880F991FE6
:2011C000880F991F8E0D9F1D9C01255A3A4F7901CB2CD12C86010E947E078993CE15DF05C5
:2011E000C9F7B0928A01F601EE0FFF1FEE0FFF1FEE0FFF1FEC0DFD1DE55AFA4F90E080E0AF
:201200002191920F8F5F8830D9F7F801EE0FFF1FEE0FFF1FEE0FFF1F0E0F1F1FF801E55A28
:20122000FA4F808589130BC080918601886080938601809186018B7F8093860105C08091CD
:201240008601806180938601DF91CF911F910F91FF90EF90DF90CF90BF900895809186010C
:2012600082FF0EC08091880181508093880180918801811105C0809186018B7F80938601EB
:2012800080918901882331F080918901815080938901089580918F0180939001089580914E
:2012A0008B0190918A01981308C08091850180688093850180E090E008958F5F8F7090E0A1
:2012C0009C01220F331F220F331F220F331F820F931F855A9A4F089590918B019F5F9F7086
:2012E00090938B0180918A01891B8F7029F490918601977F909386010895CF93DF93FC010D
:2013000040918C01842F90E001968F70992720918D0130E08217930731F4809185018061D7
:20132000809385012BC04F5F4F70842F90E0DC01AA0FBB1FAA0FBB1FAA0FBB1FA80FB91F74
:20134000A553BB4FEF01289680E0642F70E09B0190819D939191890FEC17FD07C1F7FB0148
:20136000EE0FFF1FEE0FFF1FEE0FFF1F2E0F3F1FF901E553FB4F808740938C01DF91CF91CE
:20138000089590E08B30910580F5FC01E25CFF4F0C94580C8FE58093CC0008958FE3809378
:2013A000CC0008958FE28093CC0008958FE18093CC00089587E18093CC0008958FE0809385
:2013C000CC0008958BE08093CC00089587E08093CC00089583E08093CC00089582E0809386
:2013E000CC0008951092CC0008958FE28093CC0008951F920F920FB60F9211248F9381E01C
:20140000809391018F910F900FBE0F901F9018951F920F920FB60F9211248F9381E080931D
:2014200091018F910F900FBE0F901F9018951F920F920FB60F9211248F9381E0809391017E
:201440008F910F900FBE0F901F90189580919101882331F0109291010E9416070E942E09CA
:2014600008958AE18AB90E946E060E9471080E9468000E94630281EC99E09093780180934A
:20148000770180E190E00E947E020E94710178940895CF93DF93CDB7DEB72C970FB6F89423
:2014A000DEBF0FBECDBF0E94310A0E9424020E94E1010E94F1010E94010260E085E00E948D
:2014C000D00180E091E00E94150262E080E00E94D00186E191E00E94150263E080E00E94C6
:2014E000D0018DE191E00E94150264E080E00E94D00184E291E00E94150265E080E00E9495
:20150000D00189E291E00E94150266E080E00E94D0018EE291E00E94150267E080E00E9469
:20152000D00184E391E00E94150268E080E00E94D0018AE391E00E94150269E080E00E944C
:20154000D00183E491E00E94150210E00F2EFCE4CF2EF1E0DF2EF02DCE0101967C0100E061
:201560000E9476010E94260A0E947F060E948208909191019923A1F3133310F41F5FF0CFA3
:2015800086E00E947700BC0180E090E00E945D0B26E636E64EEF50E40E94C30B0E942E0B51
:2015A0007F936F93DF92CF92FF92EF920E945E0C62E08AE00E94D001C7010E9415028FE414
:2015C00091E00E94150285E00E947700BC0180E090E00E945D0B26E636E64EEF50E40E9491
:2015E000C30B0E942E0B7F936F93DF92CF92FF92EF920E945E0C63E08AE00E94D001C70156
:201600000E9415028FE491E00E94150287E00E9477005C0164E08AE00E94D0010FB6F89425
:20162000DEBF0FBECDBF9FE4A91692E0B90630F082E591E00E941502102F92CF84E6A816C8
:20164000B10430F48EE591E00E941502102F88CF8AE691E00E941502102F82CF0E94A20B05
:2016600088F09F5798F0B92F9927B751B0F0E1F0660F771F881F991F1AF0BA95C9F714C0FC
:20168000B13091F00E94BC0BB1E008950C94BC0B672F782F8827B85F39F0B93FCCF38695EC
:2016A00077956795B395D9F73EF490958095709561957F4F8F4F9F4F0895E89409C097FB95
:2016C0003EF490958095709561957F4F8F4F9F4F9923A9F0F92F96E9BB279395F69587955C
:2016E00077956795B795F111F8CFFAF4BB0F11F460FF1BC06F5F7F4F8F4F9F4F16C08823ED
:2017000011F096E911C0772321F09EE8872F762F05C0662371F096E8862F70E060E02AF060
:201720009A95660F771F881FDAF7880F9695879597F9089557FD9058440F551F59F05F3F02
:2017400071F04795880F97FB991F61F09F3F79F087950895121613061406551FF2CF4695AF
:20176000F1DF08C0161617061806991FF1CF86957105610508940895E894BB276627772739
:20178000CB0197F908950E94D60B0C94470C0E94390C38F00E94400C20F0952311F00C9474
:2017A000300C0C94360C11240C94BD0B0E949A0B70F3959FC1F3950F50E0551F629FF001A2
:2017C000729FBB27F00DB11D639FAA27F00DB11DAA1F649F6627B00DA11D661F829F2227EA
:2017E000B00DA11D621F739FB00DA11D621F839FA00D611D221F749F3327A00D611D231F77
:20180000849F600D211D822F762F6A2F11249F5750409AF0F1F088234AF0EE0FFF1FBB1F0B
:20182000661F771F881F91505040A9F79E3F510580F00C94300C0C94BD0B5F3FE4F3983EA3
:20184000D4F3869577956795B795F795E7959F5FC1F7FE2B880F911D9695879597F90895B2
:2018600097F99F6780E870E060E008959FEF80EC089500240A9416161706180609060895D1
:2018800000240A9412161306140605060895092E0394000C11F4882352F0BB0F40F4BF2BCF
:2018A00011F460FF04C06F5F7F4F8F4F9F4F0895EE0FFF1F0590F491E02D0994AEE0B0E0FE
:2018C000E4E6FCE00C94470F0D891E8986E08C831A8309838FEF9FE79E838D83AE01475E08
:2018E0005F4F6F89788DCE0101960E94810C2F813885F801E20FF31F10822E96E4E00C9485
:20190000630FACE0B0E0E7E8FCE00C94390F7C016B018A01FC0117821682838181FFBDC102
:20192000CE0101964C01F7019381F60193FD859193FF81916F01882309F4ABC1853239F43F
:2019400093FD859193FF81916F01853229F4B70190E00E94690EE7CF512C312C20E02032D6
:20196000A0F48B3269F030F4803259F0833269F420612CC08D3239F0803339F4216026C0F0
:201980002260246023C0286021C027FD27C030ED380F3A3078F426FF06C0FAE05F9E300DB1
:2019A0001124532E13C08AE0389E300D1124332E20620CC08E3221F426FD6BC1206406C0CF
:2019C0008C3611F4206802C0883641F4F60193FD859193FF81916F018111C1CF982F9F7D4D
:2019E0009554933028F40C5F1F4FFFE3F9830DC0833631F0833771F0833509F05BC022C078
:201A0000F801808189830E5F1F4F44244394512C540115C03801F2E06F0E711CF801A080D1
:201A2000B18026FF03C0652D70E002C06FEF7FEFC5012C870E945E0E2C0183012C852F778E
:201A4000222E17C03801F2E06F0E711CF801A080B18026FF03C0652D70E002C06FEF7FEFA8
:201A6000C5012C870E94530E2C012C852068222E830123FC1BC0832D90E048165906B0F435
:201A8000B70180E290E00E94690E3A94F4CFF50127FC859127FE81915F01B70190E00E9482
:201AA000690E31103A94F1E04F1A51084114510471F7E5C0843611F0893639F5F80127FF8F
:201AC00007C060817181828193810C5F1F4F08C060817181072E000C880B990B0E5F1F4F8E
:201AE0002F76722E97FF09C090958095709561957F4F8F4F9F4F2068722E2AE030E0A4018C
:201B00000E94A10EA82EA81844C0853729F42F7EB22E2AE030E025C0F22FF97FBF2E8F362A
:201B2000C1F018F4883579F0B4C0803719F0883721F0AFC02F2F2061B22EB4FE0DC08B2D59
:201B40008460B82E09C024FF0AC09F2F9660B92E06C028E030E005C020E130E002C020E1E3
:201B600032E0F801B7FE07C060817181828193810C5F1F4F06C06081718180E090E00E5F45
:201B80001F4FA4010E94A10EA82EA818FB2DFF777F2E76FE0BC0372D3E7FA51450F474FE31
:201BA0000AC072FC08C0372D3E7E05C0BA2C372D03C0BA2C01C0B52C34FF0DC0FE01EA0DB5
:201BC000F11D8081803311F4397E09C032FF06C0B394B39404C0832F867809F0B39433FD55
:201BE00013C030FF06C05A2CB31418F4530C5B18B32CB31468F4B70180E290E03C870E9401
:201C0000690EB3943C85F5CFB31410F43B1801C0312C34FF12C0B70180E390E03C870E9450
:201C2000690E3C8532FF17C031FD03C088E790E002C088E590E0B7010CC0832F867859F078
:201C400031FF02C08BE201C080E237FD8DE2B70190E00E94690EA51438F4B70180E390E0AE
:201C60000E94690E5A94F7CFAA94F401EA0DF11D8081B70190E00E94690EA110F5CF332055
:201C800009F451CEB70180E290E00E94690E3A94F6CFF7018681978102C08FEF9FEF2C964B
:201CA000E2E10C94550FFC010590615070400110D8F7809590958E0F9F1F0895FC016150AA
:201CC000704001900110D8F7809590958E0F9F1F08950F931F93CF93DF93FB01238121FDCB
:201CE00003C08FEF9FEF28C022FF16C046815781248135814217530744F4A081B1819D0160
:201D00002F5F3F4F318320838C93268137812F5F3F4F3783268310C0EB01092F182F008494
:201D2000F185E02D0995892BE1F68E819F8101969F838E83812F902FDF91CF911F910F916F
:201D40000895FA01AA27283051F1203181F1E8946F936E7F6E5F7F4F8F4F9F4FAF4FB1E05C
:201D60003ED0B4E03CD0670F781F891F9A1FA11D680F791F8A1F911DA11D6A0F711D811DC0
:201D8000911DA11D20D009F468943F912AE0269F11243019305D3193DEF6CF010895462FCA
:201DA0004770405D4193B3E00FD0C9F7F6CF462F4F70405D4A3318F0495D31FD4052419374
:201DC00002D0A9F7EACFB4E0A6959795879577956795BA95C9F700976105710508959B01FE
:201DE000AC010A2E06945795479537952795BA95C9F7620F731F841F951FA01D0895DC0174
:201E0000CB01FC01F999FECF06C0F2BDE1BDF89A319600B40D9241505040B8F70895262F19
:201E2000F999FECF92BD81BDF89A019700B4021639F01FBA20BD0FB6F894FA9AF99A0FBE9C
:201E40000895DC01CB0103C02D910E942C0F41505040D0F70895262FF999FECF1FBA92BD7D
:201E600081BD20BD0FB6F894FA9AF99A0FBE019608952F923F924F925F926F927F928F9237
:201E80009F92AF92BF92CF92DF92EF92FF920F931F93CF93DF93CDB7DEB7CA1BDB0B0FB6CA
:201EA000F894DEBF0FBECDBF09942A88398848885F846E847D848C849B84AA84B984C88404
:201EC000DF80EE80FD800C811B81AA81B981CE0FD11D0FB6F894DEBF0FBECDBFED0108958D
:201EE000F894FFCF41746F6D5472616365202D205363692D5472616365004275732D413A8E
:201F0000FFFFFFFFFFFFFFFFFFFFFFFFFFFFFFFFFFFFFFFFFFFFFFFFFFFFFFFFFFFFFFFFE1
:201F2000FFFFFFFFFFFFFFFFFFFFFFFFFFFFFFFFFFFFFFFFFFFFFFFFFFFFFFFFFFFFFFFFC1
:201F4000FFFFFFFFFFFFFFFFFFFFFFFFFFFFFFFFFFFFFFFFFFFFFFFFFFFFFFFFFFFFFFFFA1
:201F6000FFFFFFFFFFFFFFFFFFFFFFFFFFFFFFFFFFFFFFFFFFFFFFFFFFFFFFFFFFFFFFFF81
:20E000000C9470700C948D700C948D700C948D700C948D700C948D700C948D700C948D7035
:20E020000C948D700C948D700C948D700C948D700C948D700C948D700C948D700C948D70F8
:20E040000C948D700C948D700C948D700C948D700C948D700C948D700C948D700C948D70D8
:20E060000C948D700C948D700C948D700C948D700C948D700C948D700C948D70E872427247
:20E080004272DC728A724272427242724272427242724272977242724272A3724272C87222
:20E0A00042724272D27242724272427242724272427242724272427242724272E5724272ED
:20E0C00042725B724272537342724272427242728472427242724272427242724F72AF7219
:20E0E00011241FBECFEFD0E1DEBFCDBF13E0A0E0B1E0E0E6F7EE02C005900D92AA33B1073C
:20E10000D9F724E0AAE3B3E001C01D92AF33B207E1F70E9423720C94AE730C9400700F937E
:20E120001F93CF93DF9320E030E0D0E018C09491AC2FA927B0E0A75FBD4FCC913196E01734
:20E14000F107A9F7C9010E94EA708C2F80950E94DA700E94F47098010115104E29F08901EF
:20E160001395F901CD2FE3CF86E00E94DA700E94F470DF91CF911F910F9108959093C50052
:20E180008093C40088E98093C10086E08093C20008958091C00088231CF48091C60008958B
:20E1A00080E00895E0ECF0E080818823ECF78091C6000895E0ECF0E0908195FFFDCF8093A3
:20E1C000C6000895E0ECF0E0908195FFFDCF8093C6000895CF93C82F892F0E94E2708C2F99
:20E1E0000E94E270CF910895E0ECF0E0808185FFFDCF8DE08093C6000895CF93DF93EC019D
:20E200008881882331F021960E94DA7089918111FBCFDF91CF910895CF93DF93EC018881D9
:20E22000882331F021960E94DA7089918111FBCF8DE00E94DA70DF91CF91089510923E0350
:20E2400010923D030E94C970803541F489E093E00E940C7181E080933A03089586E69EE0E4
:20E260000197F1F7000080913D0390913E03019690933E0380933D038A3F910518F38091A2
:20E280003A03811102C00C9400000895E0E0F0E083E080935700E89507B600FCFDCFF395C9
:20E2A000E11590EEF907A9F70895CF93DF93C0E0D0E0CE010E9494738F3F21F06FEFCE0105
:20E2C0000E949C732196C11588E0D80791F7DF91CF910895EF92FF920F931F93CF93DF938A
:20E2E0008C017B01F394DB0181E0A80142505109461B570B2C911296FD01E40FF51FED01A1
:20E300002197988130E0392B090180935700E8951124EA16FB0671F785E0F8018093570061
:20E32000E89507B600FCFDCFDF91CF911F910F91FF90EF900895EF92FF920F931F93CF9348
:20E34000DF937B01F394EB0101978C01061B170B6991C8018C0F9D1F0E949C73CE15DF0562
:20E36000B9F7DF91CF911F910F91FF90EF9008951F93CF93DF93182FEB01882321F061301C
:20E380007F4D18F026C0C0E0D0E0CE010E94EA7010923C0310923B03E0E0F0E0EC0FFD1F40
:20E3A00084910E94DA70E0913B03F0913C033196F0933C03E0933B03EF3FF10579F370F3C0
:20E3C0000E94F470113029F0D395C1308FEDD807E0F2DF91CF911F9108951F93CF93DF93B4
:20E3E000182FEB01882321F06130774018F027C0C0E0D0E0CE010E94EA7010923C03109259
:20E400003B0380E090E08C0F9D1F0E9494730E94DA7080913B0390913C03019690933C035A
:20E4200080933B038F3F910571F368F30E94F470113029F02896C13087E0D807D8F2DF91D9
:20E44000CF911F910895F89487E090E00E94BE700E941E710F2EF1E28F2EF02D6894EE24B3
:20E46000E1F8F12C6894AA24A2F8B12C0F2EF9E09F2EF02D0F2EF3E0CF2ED12CF02D6624B4
:20E480006394712C0E94D27090E0FC01E254F109E233F105B8F7E25CFF480C948E73F30193
:20E4A0009092570084910E94DA7086E00E94DA700E94F470E7CF0E94D270853469F0863424
:20E4C00019F08134D9F410C00E94467186E00E94DA700E94F470D6CF0E94557186E00E941B
:20E4E000DA700E94F470CECF0E9446710E94557186E00E94DA700E94F470C4CF85E10E947B
:20E50000DA700E94F470BECF85E10E94DA700E94F470B8CFE0E0F0E09092570084910E947F
:20E52000DA7086E00E94DA700E94F470ABCFF6019092570084910E94DA7086E00E94DA70FC
:20E540000E94F4709FCFF7019092570084910E94DA7086E00E94DA700E94F47093CFE0E05B
:20E56000F0E08092570084910E94DA70F7018092570084910E94DA70F5018092570084918B
:20E580000E94DA7086E00E94DA700E94F4707ACF80E091E00E94FD7086E00E94DA700E941A
:20E5A000F47070CF8DE193E00E94FD7086E00E94DA700E94F47066CF80E293E00E94FD7057
:20E5C0000E94F4700C9400005DCF0E948F705ACF0E94D270C82F0E94D270082F10E0102F7A
:20E5E00000270E94D270082BC53481F1C63409F049CF10923E0310923D03C0E0D0E00E94B0
:20E60000D270C15CDC4F8883C0913D03D0913E032196D0933E03C0933D03CF3FD10579F3F4
:20E6200070F30130FFED1F0758F46FE373E0C8010E946A7186E00E94DA700E94F47022CFB4
:20E6400085E10E94DA700E94F4701CCF10923E0310923D03C0E0D0E00E94D270C75FDE4F2B
:20E660008883C0913D03D0913E032196D0933E03C0933D03CF3FD10579F370F3013087E023
:20E68000180758F469E071E0C8010E949B7186E00E94DA700E94F470F5CE85E10E94DA7091
:20E6A0000E94F470EFCE0E94D270182F0E94D270C82FD0E0DC2FCC270E94D270C82B1534C3
:20E6C000C1F0163409F0DECE0E94D270C1309FEDD90748F4BE010E94B87186E00E94DA7041
:20E6E0000E94F470CFCE85E10E94DA700E94F470C9CE0E94D270C130EFEFDE0748F4BE01F5
:20E700000E94ED7186E00E94DA700E94F470BACE85E10E94DA700E94F470B4CEEE0FFF1F24
:20E720000590F491E02D0994F999FECF92BD81BDF89A992780B50895262FF999FECF92BD02
:20E7400081BDF89A019700B4021639F01FBA20BD0FB6F894FA9AF99A0FBE0895F894FFCF6A
:20E760005641303030303031000102030400000000000000000000000000000000000000D7
:20E78000000000000000000000000000000000000000000000000000000000000000000079
:20E7A000000000000000000000000000000000000000000000000000000000000000000059
:20E7C000000000000000000000000000000000000000000000000000000000000000000039
:20E7E000000000000000000000000000000000000000000000000000000000000000000019
:20E800000000000000000000000000000000000000000000000000000000000000000000F8
:20E820000000000000000000000000000000000000000000000000000000000000000000D8
:20E840000000000000000000000000000000000000000000000000000000000000000000B8
:20E8600000000000000000000000809717B9392EAEE56572F25CDCCB4B5DDDCA4AE4647397
:20E88000F3B8382FAF01819616BA3A2DAD038394145FDFC848E66671F1E76770F05EDEC9DE
:20E8A0004902829515BB3B2CACE36374F45ADACD4D06869111BF3F28A8BE3E29A90787902F
:20E8C000105BDBCC4CE26275F559D9CE4EE06077F7BC3C2BAB0585921204849313BD3D2AE2
:20E8E000AAE16176F658D8CF4F51D1C646E8687FFFB43423A30D8D9A1A0C8C9B1BB5352220
:20E90000A2E9697EFE50D0C747EB6B7CFC52D2C5450E8E9919B73720A0B63621A10F8F987D
:20E920001853D3C444EA6A7DFDB23225A50B8B9C1C57D7C040EE6E79F9EF6F78F856D6C110
:20E94000410A8A9D1DB33324A408889F1FB13126A6ED6D7AFA54D4C34355D5C242EC6C7B81
:20E96000FBB03027A709899E1E41746F6D5472616365426F6F744C6F6164657200303000D5
:1AE98000457869742066726F6D20424F4F544C4F414445522E2042594500D6
:00000001FF
