:100000000C943E000C9453000C9453000C94530039
:100010000C9453000C9453000C9453000C94530014
:100020000C9453000C9453000C9453000C94530004
:100030000C9453000C9453000C9453000C945300F4
:100040000C9453000C9453000C9453000C945300E4
:100050000C9453000C9453000C9453000C945300D4
:100060000C9453000C9453000C9453000C945300C4
:100070000C9453000C9453000C94530011241FBE95
:10008000CFEFD0E1DEBFCDBF11E0A0E0B1E0EAEDFF
:10009000F1E002C005900D92AE31B107D9F70E9490
:1000A00090000C94EB000C9400009093C50080939A
:1000B000C40088E98093C10086E08093C20008955F
:1000C0008091C00087FFFCCF8091C6000895909179
:1000D000C00095FFFCCF8093C60008958091C000BA
:1000E00085FFFCCF8DE08093C6000895CF93DF930A
:1000F000EC018991882319F00E946700FACFDF9103
:10010000CF910895CF93DF93EC018991882319F063
:100110000E946700FACF8DE0DF91CF910C946700C9
:1001200088E090E00E9455000C940000C9E0CC24C7
:10013000C394D12CD1E200E010E092E0E92EF12C42
:1001400024E0A22EB12C33E0832E912C0E9460007B
:100150008135A9F188F4863471F148F48534B1F71A
:1001600083E091E00E9482000C940000EFCF8E3477
:1001700021F1803569F1EACF853651F138F48635C1
:1001800029F780E091E00E947600E0CF8237C9F045
:100190008337E1F6F801D093570084910E946700FD
:1001A000F701D093570084910E946700F501D09326
:1001B000570084910AC0F80105C0F40103C0F7019B
:1001C00001C0F601C093570084910E946700BECF22
:0A01D0000E946E00BBCFF894FFCF31
:1001DA00303000457869742066726F6D20424F4F47
:0E01EA00544C4F414445522E204259450000CE
:00000001FF
