S00F0000462D30303030392E73726563A9
S11300000C943E000C9448000C9448000C94480056
S11300100C9448000C9448000C9448000C9448003C
S11300200C9448000C9448000C9448000C9448002C
S11300300C9448000C9448000C9448000C9448001C
S11300400C9448000C9448000C9448000C9448000C
S11300500C9448000C9448000C9448000C944800FC
S11300600C9448000C9448000C9448000C944800EC
S11300700C9448000C9448000C94480011241FBEB2
S1130080CFEFD0E1DEBFCDBF0E944A000C945F00E9
S11300900C940000CF93DF9300D000D000D0CDB7F4
S11300A0DEB71B821A821C8219821D821E828981FC
S11300B08F5F898389818F3F09F41982F8CFF8947F
S10500C0FFCF6C
S9030000FC
